{
  "transactions": [
    {
      "hash": "0xbc3146d385360af5773a1624d761cd2e2d9568a22e312d04678356857feea3b2",
      "transactionType": "CALL",
      "contractName": null,
      "contractAddress": "0x20cf32df33ad34208fa6b1813adb341822362896",
      "function": "setMessage(string)",
      "arguments": [
        "Hello Foundry!"
      ],
      "transaction": {
        "from": "0x95d94e5370d9c2522dd6a4d7e670f3ec582643b1",
        "to": "0x20cf32df33ad34208fa6b1813adb341822362896",
        "gas": "0x93ba",
        "value": "0x0",
        "input": "0x368b87720000000000000000000000000000000000000000000000000000000000000020000000000000000000000000000000000000000000000000000000000000000e48656c6c6f20466f756e64727921000000000000000000000000000000000000",
        "nonce": "0x73",
        "chainId": "0xaa36a7"
      },
      "additionalContracts": [],
      "isFixedGasLimit": false
    }
  ],
  "receipts": [
    {
      "status": "0x1",
      "cumulativeGasUsed": "0xb9f516",
      "logs": [],
      "logsBloom": "0x00000000000000000000000000000000000000000000000000000000000000000000000000000000000000000000000000000000000000000000000000000000000000000000000000000000000000000000000000000000000000000000000000000000000000000000000000000000000000000000000000000000000000000000000000000000000000000000000000000000000000000000000000000000000000000000000000000000000000000000000000000000000000000000000000000000000000000000000000000000000000000000000000000000000000000000000000000000000000000000000000000000000000000000000000000000",
      "type": "0x2",
      "transactionHash": "0xbc3146d385360af5773a1624d761cd2e2d9568a22e312d04678356857feea3b2",
      "transactionIndex": "0x57",
      "blockHash": "0xb31dad0e6e466df2afb125e0434add252b57e82d5c14efec24394da1d94b39df",
      "blockNumber": "0x8987ae",
      "gasUsed": "0x6af4",
      "effectiveGasPrice": "0x5ccd572",
      "from": "0x95d94e5370d9c2522dd6a4d7e670f3ec582643b1",
      "to": "0x20cf32df33ad34208fa6b1813adb341822362896",
      "contractAddress": null
    }
  ],
  "libraries": [],
  "pending": [],
  "returns": {},
  "timestamp": 1755545318,
  "chain": 11155111,
  "commit": "029cf5f"
}