{
  "transactions": [
    {
      "hash": "0xf5a682b9039e50e4468a976cac370ccf8b9b8711c91edac39c83befa3a547dd6",
      "transactionType": "CALL",
      "contractName": null,
      "contractAddress": "0xf0990a8deb64fd72258ffd824806d39c821889c7",
      "function": "setMessage(string)",
      "arguments": [
        "Hello Foundry!"
      ],
      "transaction": {
        "from": "0x95d94e5370d9c2522dd6a4d7e670f3ec582643b1",
        "to": "0xf0990a8deb64fd72258ffd824806d39c821889c7",
        "gas": "0x849e",
        "value": "0x0",
        "input": "0x368b87720000000000000000000000000000000000000000000000000000000000000020000000000000000000000000000000000000000000000000000000000000000e48656c6c6f20466f756e64727921000000000000000000000000000000000000",
        "nonce": "0x70",
        "chainId": "0xaa36a7"
      },
      "additionalContracts": [],
      "isFixedGasLimit": false
    }
  ],
  "receipts": [
    {
      "status": "0x1",
      "cumulativeGasUsed": "0x941bf6",
      "logs": [],
      "logsBloom": "0x00000000000000000000000000000000000000000000000000000000000000000000000000000000000000000000000000000000000000000000000000000000000000000000000000000000000000000000000000000000000000000000000000000000000000000000000000000000000000000000000000000000000000000000000000000000000000000000000000000000000000000000000000000000000000000000000000000000000000000000000000000000000000000000000000000000000000000000000000000000000000000000000000000000000000000000000000000000000000000000000000000000000000000000000000000000",
      "type": "0x2",
      "transactionHash": "0xf5a682b9039e50e4468a976cac370ccf8b9b8711c91edac39c83befa3a547dd6",
      "transactionIndex": "0x55",
      "blockHash": "0xc2b4b8911afe5752d02ef67a5c7949468e42d43d3f0e1cdcbc6e207a66933eb4",
      "blockNumber": "0x88df9a",
      "gasUsed": "0x6004",
      "effectiveGasPrice": "0x1fbb9a",
      "from": "0x95d94e5370d9c2522dd6a4d7e670f3ec582643b1",
      "to": "0xf0990a8deb64fd72258ffd824806d39c821889c7",
      "contractAddress": null
    }
  ],
  "libraries": [],
  "pending": [],
  "returns": {},
  "timestamp": 1755024817,
  "chain": 11155111,
  "commit": "1b4fc93"
}