{
  "transactions": [
    {
      "hash": "0x3292a6a5680f431fd61fd41c64e664e6e5ddceacb5ade01d259f4f8a0df7ff12",
      "transactionType": "CALL",
      "contractName": null,
      "contractAddress": "0x20cf32df33ad34208fa6b1813adb341822362896",
      "function": "setMessage(string)",
      "arguments": [
        "Hello Foundry!"
      ],
      "transaction": {
        "from": "0x95d94e5370d9c2522dd6a4d7e670f3ec582643b1",
        "to": "0x20cf32df33ad34208fa6b1813adb341822362896",
        "gas": "0x849e",
        "value": "0x0",
        "input": "0x368b87720000000000000000000000000000000000000000000000000000000000000020000000000000000000000000000000000000000000000000000000000000000e48656c6c6f20466f756e64727921000000000000000000000000000000000000",
        "nonce": "0x74",
        "chainId": "0xaa36a7"
      },
      "additionalContracts": [],
      "isFixedGasLimit": false
    }
  ],
  "receipts": [
    {
      "status": "0x1",
      "cumulativeGasUsed": "0x9390dd",
      "logs": [],
      "logsBloom": "0x00000000000000000000000000000000000000000000000000000000000000000000000000000000000000000000000000000000000000000000000000000000000000000000000000000000000000000000000000000000000000000000000000000000000000000000000000000000000000000000000000000000000000000000000000000000000000000000000000000000000000000000000000000000000000000000000000000000000000000000000000000000000000000000000000000000000000000000000000000000000000000000000000000000000000000000000000000000000000000000000000000000000000000000000000000000",
      "type": "0x2",
      "transactionHash": "0x3292a6a5680f431fd61fd41c64e664e6e5ddceacb5ade01d259f4f8a0df7ff12",
      "transactionIndex": "0x59",
      "blockHash": "0x63ceb62651d57c79371ef1f4491ac3528c87f6b100af448b956bc69b5b9bd832",
      "blockNumber": "0x8987ba",
      "gasUsed": "0x6004",
      "effectiveGasPrice": "0x4ac1d5d",
      "from": "0x95d94e5370d9c2522dd6a4d7e670f3ec582643b1",
      "to": "0x20cf32df33ad34208fa6b1813adb341822362896",
      "contractAddress": null
    }
  ],
  "libraries": [],
  "pending": [],
  "returns": {},
  "timestamp": 1755545460,
  "chain": 11155111,
  "commit": "029cf5f"
}