{
  "transactions": [
    {
      "hash": "0xc9677c522d81c3c7f448cc35cd83a29c0fceb990d88dca2da2a7f72b45399e94",
      "transactionType": "CALL",
      "contractName": null,
      "contractAddress": "0xf0990a8deb64fd72258ffd824806d39c821889c7",
      "function": "setMessage(string)",
      "arguments": [
        "Hello Foundry!"
      ],
      "transaction": {
        "from": "0x95d94e5370d9c2522dd6a4d7e670f3ec582643b1",
        "to": "0xf0990a8deb64fd72258ffd824806d39c821889c7",
        "gas": "0x93ba",
        "value": "0x0",
        "input": "0x368b87720000000000000000000000000000000000000000000000000000000000000020000000000000000000000000000000000000000000000000000000000000000e48656c6c6f20466f756e64727921000000000000000000000000000000000000",
        "nonce": "0x6f",
        "chainId": "0xaa36a7"
      },
      "additionalContracts": [],
      "isFixedGasLimit": false
    }
  ],
  "receipts": [
    {
      "status": "0x1",
      "cumulativeGasUsed": "0x866ed2",
      "logs": [],
      "logsBloom": "0x00000000000000000000000000000000000000000000000000000000000000000000000000000000000000000000000000000000000000000000000000000000000000000000000000000000000000000000000000000000000000000000000000000000000000000000000000000000000000000000000000000000000000000000000000000000000000000000000000000000000000000000000000000000000000000000000000000000000000000000000000000000000000000000000000000000000000000000000000000000000000000000000000000000000000000000000000000000000000000000000000000000000000000000000000000000",
      "type": "0x2",
      "transactionHash": "0xc9677c522d81c3c7f448cc35cd83a29c0fceb990d88dca2da2a7f72b45399e94",
      "transactionIndex": "0x5f",
      "blockHash": "0x619442ae5c531231ad9447508718bbaeec75b29034f8dda758658253ad19adc7",
      "blockNumber": "0x88df86",
      "gasUsed": "0x6af4",
      "effectiveGasPrice": "0x207648",
      "from": "0x95d94e5370d9c2522dd6a4d7e670f3ec582643b1",
      "to": "0xf0990a8deb64fd72258ffd824806d39c821889c7",
      "contractAddress": null
    }
  ],
  "libraries": [],
  "pending": [],
  "returns": {},
  "timestamp": 1755024565,
  "chain": 11155111,
  "commit": "1b4fc93"
}